:020000040800F2
:10000000005000207901000831010008310100088A
:100010003101000831010008310100080000000032
:100020000000000000000000000000003101000896
:100030003101000800000000310100085D010008E6
:1000400031010008310100083101000831010008C8
:1000500031010008310100083101000831010008B8
:1000600031010008310100083101000831010008A8
:100070003101000831010008310100083101000898
:100080003101000831010008310100083101000888
:100090003101000831010008310100083101000878
:1000A0003101000831010008310100083101000868
:1000B0003101000831010008310100083101000858
:1000C0003101000831010008310100083101000848
:1000D0003101000831010008310100083101000838
:1000E0003101000831010008310100083101000828
:1000F0003101000831010008310100083101000818
:100100003101000831010008310100083101000807
:1001100031010008310100083101000831010008F7
:1001200031010008310100083101000831010008E7
:1001300000F033F9FFFFFFFF00F0F0F800F0EEFFF2
:1001400001F028F81020657863657074696F6E207F
:1001500068616C74210000BF00F0B6B84FF0000376
:10016000C2F20003586800F101005860986810B1AD
:10017000A0F10100986070474FF00000C2F200004B
:1001800081EA01014FF4A04202EB000340F8041B96
:10019000043AFBD100F006F801F00EFC02F03CF945
:1001A000FFF7EABF4FF40050C4F202004FF0120212
:1001B00002604FF48050C4F20200016841F48031C3
:1001C0000160016811F4003FFBD04FF48061C0F280
:1001D0001D014160016841F080710160016811F00A
:1001E000007FFBD041684FF6FC72CFF6FF7201EA48
:1001F00002014FF0020241EA02014160416811F040
:10020000080FFBD04FF48050C4F2020044F21401F6
:1002100081614FF48050C4F2010041686FF47002B4
:1002200001EA02014FF4C00241EA020141604FF4C9
:100230000060C4F2010041686FF0F00201EA0201BF
:100240004FF0A00241EA020141604FF46050C4F255
:10025000010040F27121816042F20C01C1604EF256
:100260001000CEF2000042F2283141604FF003014D
:100270000160704700000000000000000000000066
:10028000A42300081000000000000000000000008F
:100290000000000000000000804E00204C18000804
:1002A00000000000122400086E2400080001002055
:1002B0001224000800000000000000000000000000
:1002C000065245424F4F54004FF46D40CEF20000AD
:1002D000C168C0F2FA5141F00401C1607047C00228
:1002E000000805504155534542F804ED00F0B8FAB6
:1002F00000F092F800F0B4FA00F098F800F070F80E
:100300000C03000800F078F8F402000852F804EB3F
:100310007047E202000804554C4544004FF4005673
:100320004FF48054C4F20104280051F8045B01D05A
:10033000666170472661704716030008043F4B450D
:10034000590000BF41F8045D4FF46054C4F2010449
:10035000268816F0200605D0656841F8045D18BFB0
:100360006FF0000508BF0025704700BF3C03000880
:1003700004454D49540000BF4FF46054C4F20104D9
:10038000268816F08006FBD0A58051F8045B7047E4
:1003900070030008034E4F50704741F8045D2EF083
:1003A000010E5EF8045B4EF0010E704794030008E6
:1003B000074558454355544545F0010451F8045B41
:1003C0002047146824B902F104020EF1040E7047AC
:1003D000A4F1010414605EF801EC4EF0010E7047C8
:1003E0002C0051F8045B04D15EF801EC4EF0010ED4
:1003F00070470EF1040E70475EF801EC4EF0010EEE
:100400007047B003000804455849540052F804EB03
:10041000704706040008012151F8044B2C6051F884
:10042000045B704716040008014000BF2D68704748
:10043000280400080243210051F8044B2C7051F8A5
:10044000045B704734040008024340002D78704775
:100450004804000802523E0041F8045D52F8045B73
:100460007047540400080252400000BF41F8045D88
:100470001568704766040008423E520042F8045D69
:1004800051F8045B7047780400080353504000BFE4
:1004900041F8045D0D4670478A0400080444524F39
:1004A000500000BF51F8045B70479C0400080344EF
:1004B000555000BF41F8045D7047AE040008045376
:1004C000574150000C680D6025467047BE04000877
:1004D000044F5645520000BF41F8045D4D68704717
:1004E000D004000802303C004FF0000404EB250566
:1004F0007047E404000803414E4400BF51F8044B28
:1005000005EA04057047F6040008024F520000BFD8
:1005100051F8044B45EA040570470A0500080358E2
:100520004F5200BF51F8044B85EA040570471E0581
:10053000000803554D2B00BF0C6864194FF00005EF
:1005400045F100050C60704732050008065253481B
:100550004946540051F8044B44FA05F570474C05E0
:100560000008064C53484946540000BF51F8044B5C
:1005700004FA05F5704762050008012B51F8044B99
:10058000254470477A050008012D00BF51F8044B3F
:10059000C5EB0405704788050008012A51F8044B93
:1005A00004FB05F570479A05000803554D2A00BF66
:1005B0000C68A5FB04670E603D467047AA0500085D
:1005C000024D2A000C6885FB04670E603D467047AB
:1005D000C005000802312B0005F101057047D40564
:1005E000000802312D0000BFA5F101057047E205AA
:1005F000000802322B0000BF05F102057047F2052A
:10060000000802322D0000BFA5F102057047020666
:1006100000080543454C4C2B05F1040570471206B4
:1006200000080543454C4C2DA5F1040570472206F2
:10063000000802424C0000BF41F8045D4FF0200565
:100640007047320600080543454C4C534FEA850578
:100650007047460600080543454C4C2F4FEAA50558
:1006600070475606000802322A0000BF4FEA4505CF
:1006700070476606000802322F0000BF4FEA65058A
:10068000704776060008043F445550002C0018BF00
:1006900041F8045D70478606000803524F5400BFBE
:1006A0000C680D604D684C6070479A060008053272
:1006B00044524F5051F8045B51F8045B7047AE064A
:1006C00000080432445550000C6841F8045D41F8BC
:1006D000044D7047C206000802442B0051F8044B39
:1006E00051F8046B0F68E4190C6045EB0605704780
:1006F000D8060008034E4F546FEA05057047F4060C
:100700000008064E45474154450000BFC5F10005AD
:100710007047020700080341425300BF15F0004F25
:1007200018BF6D42704716070008013D51F8044B91
:10073000A5420CBF6FF00005002570472A0700088E
:1007400002553C0051F8044BAC4234BF6FF0000539
:100750000025704740070008013C00BF51F8044BDA
:10076000AC42B4BF6FF00005002570475807000881
:10077000013E00BF51F8044BAC42CCBF6FF0000506
:100780000025704770070008034D415851F8044B8D
:10079000AC42C8BF2546704788070008034D494E44
:1007A00051F8044BAC42B8BF254670479C0700087F
:1007B000022B210051F8044B2E6826442E6051F87C
:1007C000045B7047B00700080232210051F8044B67
:1007D00051F8046B45F8044B2E6051F8045B7047E8
:1007E000C8070008023240006C6841F8044D2D68CB
:1007F0007047E407000805434F554E5415F8014B68
:1008000041F8045D25467047F607000807444E4549
:10081000474154450C68A6EB0606341B66EB0505FC
:100820000C60704741F8045DAEF1010552F804EB2D
:10083000704741F8045D5EF8015C52F804EB7047C4
:100840000C080008044D5345430000BF41F8045D07
:1008500003F104057047440800080554494D45520A
:1008600041F8045D05F1350570475A080008052771
:10087000424F4F5441F8045D03F10C0570476E0878
:10088000000804424153450041F8045D03F110059E
:10089000704741F8045D03F11405704782080008B1
:1008A000045350414E0000BF41F8045D03F11805A8
:1008B0007047A0080008033E494E00BF41F8045DA0
:1008C00003F11C057047B608000804235449420090
:1008D00041F8045D03F120057047CA0800080527A8
:1008E0004556414C41F8045D03F128057047DE0888
:1008F000000803484C4400BF41F8045D03F12C0597
:100900007047F208000807434F4E5445585400BF43
:1009100041F8045D03F13005704706090008024301
:10092000500000BF41F8045D03F1380570471E090F
:10093000000804464350500041F8045D03F13405BB
:10094000704732090008044C4153540041F8045DDB
:1009500003F13C05704746090008065749544849C9
:100960004E0000BF42F804EDFFF7B6FDFFF70EFEA4
:10097000FFF784FDFFF70AFEFFF76EFDFFF7E2FECB
:1009800052F804EB70475A09000806554D2F4D4F99
:10099000440000BF4FF0010751F8044B0E68B61930
:1009A000644104D3A4EB050406F1010604E0641BD2
:1009B00028BF013600D22C44FF19F0D335460C6015
:1009C00070478A090008054D2F4D4F4442F804ED49
:1009D000FFF770FDFFF788FDFFF76CFDFFF74EFD99
:1009E000FFF7FEFCF8090008FFF790FEFFF746FD51
:1009F000FFF710FFFFF730FDFFF740FDFFF75AFD4F
:100A0000FFF772FDFFF7ECFC140A0008FFF72EFD5C
:100A1000FFF7B4FDFFF720FDFFF7BCFFFFF71CFD5C
:100A2000FFF7DEFC340A0008FFF74CFDFFF76EFE0F
:100A3000FFF748FD52F804EB7047C6090008042F81
:100A40004D4F440042F804EDFFF746FDFFF74CFD23
:100A5000FFF738FDFFF7BAFF52F804EB70473E0A84
:100A60000008034D4F4400BF42F804EDFFF7EAFFD2
:100A7000FFF718FD52F804EB7047620A0008012FD7
:100A800042F804EDFFF7DEFFFFF71CFDFFF70AFD5C
:100A900052F804EB70477E0A0008052A2F4D4F4498
:100AA00042F804EDFFF7EAFCFFF78CFDFFF7D4FCFA
:100AB000FFF78CFF52F804EB70479A0A0008022AED
:100AC0002F0000BF42F804EDFFF7EAFFFFF7FAFC42
:100AD000FFF7E8FC52F804EB7047BE0A0008074134
:100AE0004C49474E454400BF05F103056FF0030430
:100AF00005EA04057047DE0A0008053E43484152F6
:100B000042F804EDFFF749FC7F000000FFF7F6FC18
:100B1000FFF7D0FCFFF790FDFFF73FFC7F000000E0
:100B2000FFF720FFFFF7E8FDFFF75AFC3C0B00083A
:100B3000FFF7B8FCFFF731FC5F00000052F804EB50
:100B40007047FA0A000805444550544841F8045DCE
:100B500044F60475C2F20005A5EB01054FEAA505B0
:100B6000A5F101057047460B0008045049434B00AE
:100B700042F804EDFFF730FDFFF768FDFFF788FC52
:100B8000FFF7FCFCFFF752FC52F804EB70476A0BCE
:100B9000000804484552450042F804EDFFF7C2FE44
:100BA000FFF744FC52F804EB7047920B0008035027
:100BB000414400BF42F804EDFFF7EEFF05F1500598
:100BC00052F804EB7047AE0B00080354494200BFD3
:100BD00041F8045D5D6A7047CA0B0008084045583B
:100BE00045435554450000BF2C0051F8045B246870
:100BF00044F0010418BF20477047DC0B0008054390
:100C00004D4F564551F8046B51F8047B03E017F83B
:100C1000014B06F8014B2D0002D0A5F10105F6E7C6
:100C200051F8045B7047FE0B0008044D4F56450019
:100C300025F0030551F8046B51F8047B03E057F8E5
:100C4000044B46F8044B2D0002D0A5F10405F6E74D
:100C500051F8045B70472A0C00080446494C4C00CC
:100C600051F8046B51F8047B00E02D4607F8015B56
:100C7000360002D0A6F10106F6E751F8045B704792
:100C80005A0C0008055041434B24240042F804ED5F
:100C9000FFF72AFFFFF70EFCFFF7F0FBFFF71CFC46
:100CA000FFF76CFCFFF798FCFFF777FBFCFFFFFFFB
:100CB000FFF724FCFFF771FB00000000FFF702FCC8
:100CC000FFF7AAFBFFF7D2FBFFF7FEFCFFF7B4FB31
:100CD000FFF782FCFFF7F6FBFFF794FFFFF7BCFB83
:100CE00052F804EB7047840C000805444947495406
:100CF00042F804EDFFF751FB09000000FFF7ECFBA1
:100D0000FFF72CFD05F00705FFF738FC05F130056E
:100D100052F804EB7047EA0C00080745585452415A
:100D2000435400BF42F804EDFFF737FB000000001A
:100D3000FFF7C8FBFFF72EFEFFF7C4FBFFF7D8FF56
:100D400052F804EB70471A0D0008023C230000BF64
:100D500042F804EDFFF72EFFFFF7CEFDFFF75CFB37
:100D600052F804EB70474A0D000804484F4C440009
:100D700042F804EDFFF7C0FDFFF758FBFFF734FC26
:100D8000FFF798FBFFF7B8FDFFF746FBFFF754FBB3
:100D900052F804EB70476A0D0008012342F804ED95
:100DA000FFF772FDFFF742FBFFF7BCFFFFF7E0FF25
:100DB00052F804EB70479A0D00080223530000BF5D
:100DC00042F804EDFFF7EAFFFFF774FBFFF708FBBB
:100DD000D60D0008F6E752F804EB7047BA0D00088C
:100DE000045349474E0000BF42F804EDFFF77CFB77
:100DF000FFF7F6FA040E0008FFF7CFFA2D00000007
:100E0000FFF7B6FF52F804EB7047E00D000802232D
:100E10003E0000BF42F804EDFFF744FBFFF76CFD16
:100E2000FFF704FBFFF7C6FEFFF756FBFFF7AEFB2D
:100E300052F804EB704742F804EDFFF73BFBFFF775
:100E40001DFBFFF76BFCFFF783FFFFF7B9FFFFF711
:100E500003FBFFF7C9FFFFF7DDFF52F804EB704714
:100E60000E0E00080348455842F804EDFFF795FAC6
:100E700010000000FFF708FDFFF7CEFA52F804EB70
:100E80007047640E000807444543494D414C00BF7C
:100E900042F804EDFFF781FA0A000000FFF7F4FCC6
:100EA000FFF7BAFA52F804EB7047860E00080644C2
:100EB000494749543F0000BF42F804EDFFF7DEFA0E
:100EC000FFF76BFA30000000FFF760FBFFF765FAF1
:100ED00009000000FFF700FBFFF740FCFFF780FA76
:100EE000040F0008FFF759FA07000000FFF74EFB58
:100EF000FFF7E0FAFFF751FA0A000000FFF72EFCB7
:100F0000FFF706FBFFF7D6FAFFF7A6FAFFF71AFC82
:100F100052F804EB7047AE0E0008074E554D42459F
:100F2000523F00BF42F804EDFFF7AEFCFFF77EFA38
:100F3000FFF7A4FAFFF731FA00000000FFF7CCFA40
:100F4000FFF75CFCFFF7C8FAFFF780FAFFF725FA16
:100F50005F000000FFF7EAFBFFF742FA740F00089A
:100F6000FFF782FFFFF7AEFAFFF736FBFFF7AAFAAB
:100F7000FFF73AFBFFF7B0FAFFF768FAFFF70DFA51
:100F80002D000000FFF7D2FBFFF778FAFFF79AFA7F
:100F9000FFF76CFAFFF7FAFAFFF794FAFFF766FA31
:100FA000FFF7ECFAFFF772FBFFF71AFA38100008A8
:100FB000FFF71AFBFFF762FAFFF77CFAFFF75EFA1A
:100FC000FFF744FAFFF760FCFFF730FAFFF774FF12
:100FD000FFF706FA1C100008FFF774FAFFF754FC3D
:100FE000FFF724FAFFF7DAFAFFF7C8FAFFF734FA47
:100FF000FFF7F2FAFFF7E5F9B80F0008FFF736FA46
:10100000FFF760FAFFF74EFAFFF7EAF9141000084D
:10101000FFF77CFBFFF756FA00F00CB8FFF71CFA5D
:10102000FFF71AFAFFF746FBFFF744FBFFF7B5F9A6
:1010300000000000FFF73EFAFFF70EFAFFF73AFB59
:10104000FFF70AFAFFF720FCFFF7E6F952F804EB86
:1010500070471A0F0008034B455900BF42F804EDD2
:10106000FFF770F9FFF7BCF960100008FFF722FAEC
:10107000FFF793F903000000FFF758FBFFF73CFB75
:10108000FFF7AEF9C802000852F804EB704756109B
:10109000000805535041434542F804EDFFF7CCFAF0
:1010A000FFF76AF952F804EB7047921000080653F4
:1010B00050414345530000BF42F804EDFFF76DF97E
:1010C00000000000FFF762FBFFF7D8F900F002B85C
:1010D000FFF7E2FFFFF775F9D010000852F804EBB4
:1010E0007047AE10000804545950450042F804ED12
:1010F000FFF7C4F905E0FFF781FBFFF701FDFFF7FC
:101100003BF9FFF75EF9F6100008FFF7CBF952F84C
:1011100004EB7047E61000080243520042F804ED69
:10112000FFF73BF90D000000FFF726F9FFF735F94F
:101130000A000000FFF720F952F804EB704742F86C
:1011400004EDFFF789F9FFF787F9FFF74DFAFFF78D
:10115000B1F9FFF753FBFFF711FAFFF7C5FCFFF7F3
:101160003BFAFFF78BF9FFF7ADF9FFF787F952F874
:1011700004EB704742F804EDFFF7E1FF52F804EB8F
:10118000704742F804EDFFF739FBFFF7AFFF52F865
:1011900004EB704742F804EDFFF7D1FFFFF7F1FFD2
:1011A00052F804EB704718110008022E520000BFDD
:1011B00042F804EDFFF762F9FFF73DFEFFF74CF947
:1011C000FFF78AF9FFF7E2F9FFF776FFFFF78EFFE7
:1011D00052F804EB7047AA11000803552E5200BFC5
:1011E00042F804EDFFF74AF9FFF7B2FDFFF7E8FD1B
:1011F000FFF710FEFFF730F9FFF76EF9FFF7C6F9BA
:10120000FFF75AFFFFF772FF52F804EB7047DA114D
:10121000000802552E0000BF42F804EDFFF798FDCC
:10122000FFF7CEFDFFF7F6FDFFF736FFFFF75EFF96
:1012300052F804EB704712120008012E42F804ED38
:10124000FFF722FBFFF7F2F8FFF7A7F80A0000000C
:10125000FFF768F9FFF7C4F866120008FFF7DCFF34
:1012600052F804EB7047FFF7E6FDFFF715FFFFF7B5
:101270003DFF52F804EB70473A120008013F00BFEF
:1012800042F804EDFFF7D2F8FFF7D8FF52F804EB6D
:10129000704742F804EDFFF7FCFAFFF7BDF8FFF7DF
:1012A0001BF9FFF7EBF8FFF705F9FFF799F8A4131F
:1012B0000008FFF799F9FFF7ECFAFFF7B7F8FFF727
:1012C000BBF9FFF733FAFFF78BF81C130008FFF7A1
:1012D000D5F8FFF7B1F9FFF7FFF8FFF7B7F8FFF719
:1012E00055F9FFF701F9FFF707FAFFF779F8181337
:1012F0000008FFF771F9FFF764F8D2120008FFF752
:10130000ABF8FFF7CFF8FFF748F800000000FFF751
:10131000D1F852F804EB7047FFF79EF8FFF7DCF8BE
:10132000FFF7D0F8FFF7AAF8FFF7B3FAFFF77EF858
:10133000FFF7D2F8FFF78AF8FFF728F9FFF7A9FAC5
:10134000FFF774F8FFF778F9FFF7F0F9FFF748F8BF
:1013500058130008FFF7C8F8FFF742F876130008A3
:10136000FFF73AF9FFF72DF828130008FFF7A2F866
:10137000FFF784F809E0FFF76FF8FFF793F8FFF73E
:1013800099F8FFF729F9FFF779F8FFF7A5F8FFF7C4
:10139000FDF8FFF761F8FFF75FF8FFF7F7F852F88D
:1013A00004EB7047FFF798F8FFF756F8FFF7EEF8F1
:1013B00052F804EB70477C12000805504152534527
:1013C00042F804EDFFF75AF8FFF702FCFFF776FA50
:1013D000FFF72CF8FFF7D2F8FFF77AFAFFF726F8B5
:1013E000FFF76CFAFFF722F8FFF7D0F8FFF734F8B1
:1013F000FFF74FFFFFF762FAFFF7DCF952F804EB53
:101400007047BA130008822E280000BF42F804ED8E
:10141000FEF7C3FF29000000FFF7D2FFFFF766FECB
:1014200052F804EB704706140008812842F804EDD6
:10143000FEF7B3FF29000000FFF7C2FFFFF73AF9FC
:1014400052F804EB70472A140008812742F804ED93
:10145000FFF73EFAFEF7EAFFFFF730FAFEF7DCFF90
:1014600052F804EB70474A14000804434841520004
:1014700042F804EDFFF7E0F8FFF7A2FFFFF712F8DC
:10148000FEF7E4FF52F804EB70476A1400080457B3
:101490004F52440042F804EDFFF792FFFFF77CFB48
:1014A000FFF7BAF8FFF7F2FB52F804EB70478E141F
:1014B000000805544F4B454E42F804EDFFF7BCF8C9
:1014C000FFF7E8FF52F804EB7047B2140008054E2E
:1014D000414D453E42F804EDFFF790F9FEF75DFF00
:1014E0001F000000FFF70AF8FFF748F8FFF7FCFAC3
:1014F00052F804EB7047CE1400080553414D453FA8
:1015000042F804EDFEF7BAFF00F023B8FEF7E4FF5F
:10151000FEF7ACFFFFF79AF8FFF730F8FEF786FF0B
:10152000FEF7DAFFFEF7A2FFFFF790F8FFF726F8C5
:10153000FEF77CFFFFF72AF8FFF7A8F8FEF750FF49
:1015400052150008FEF788FFFEF7ACFF52F804EBD7
:101550007047FEF736FF0C150008FEF71EFF00006F
:10156000000052F804EB704742F804EDFEF7AAFFC2
:10157000FEF7A0FFFEF76AFFFFF770F8FFF789F9A3
:10158000FEF74AFFFEF796FFFEF750FFFEF776FFE5
:10159000FFF742F8FEF796FFFEF78CFFFEF720FFFD
:1015A000E8150008FEF786FFFEF740FFFEF7F5FEA0
:1015B0001FFFFFFFFEF7A2FFFEF758FFFEF7B2FF87
:1015C000FEF70EFFD4150008FFF72EF8FEF72EFFEA
:1015D000FFF7E2BFFFF720F8FFF75BF9FEF726FF02
:1015E000FFF78EFF00F00DB8FEF736FFFEF75AFF4B
:1015F000FEF768FFFFF718F8FEF764FF52F804EBF8
:101600007047FEF7EDFE1A160008FFF70DF8FFF71A
:101610000BF8FEF70BFFFFF7BFBFFEF71DFFFEF74E
:1016200041FFFEF74FFFFEF73DFFFEF7FDFFFEF720
:1016300041FFFFF74FFFFEF745FF52F804EB7047FD
:10164000FA140008054E414D453F00BF42F804ED35
:10165000FFF75EF9FEF7EAFEFFF786FF52F804EBAC
:10166000704742F804EDFEF709FFFEF735FFFEF77D
:10167000F3FEFEF727FFFEF72FFFFEF753FFFEF7FF
:10168000AFFEAA160008FEF788FE08000000FEF76D
:1016900073FEFEF7A9FFFEF7CFFFFEF76DFEFEF724
:1016A0007CFE08000000FEF767FE52F804EB70476E
:1016B00042F804EDFEF7FEFEFEF75EFEFEF70CFFBD
:1016C000FEF7BAFEFEF788FF52F804EB704742F8C7
:1016D00004EDFEF7EFFEFEF760FE0D000000FEF7E2
:1016E00021FFFEF77DFE1A170008FEF756FE0800E0
:1016F0000000FEF717FFFEF773FE10170008FEF755
:101700009BFFFFF7D5FF52F804EB70470000000085
:10171000FFF7A7FF52F804EB7047FEF7C3FEFEF792
:10172000D1FEFEF7BFFEFEF7C5FE52F804EB704790
:1017300044160008064143434550540042F804ED66
:10174000FEF7CAFEFEF71AFFFEF7C6FEFEF7BCFF65
:10175000FEF7E8FEFEF744FE88170008FFF77EFC60
:10176000FEF7A8FEFEF768FFFEF717FE7F000000F9
:10177000FFF7F8F8FEF734FE82170008FFF798FF2E
:1017800001E0FFF7A4FFE1E7FEF78CFEFEF7A4FE01
:10179000FEF7FCFE52F804EB7047341700080551C1
:1017A0005545525942F804EDFFF712FAFEF7F5FDE0
:1017B00050000000FFF7C2FFFFF78AF8FEF72CFE8B
:1017C000FEF770FEFEF7E9FD00000000FFF776F877
:1017D000FEF722FE52F804EB70479E170008054101
:1017E000424F525442F804EDFFF756FCFFF706F85B
:1017F000FFF77CFCFEF7D1FD3F000000FEF7BCFDCB
:10180000FFF78CFC00F0BCF800F0C6B842F804ED1D
:10181000FEF7E6FD2C180008FFF791FCFEF7EEFF3F
:10182000FFF764FCFFF77AFC00F0B6B8FFF787FC1F
:10183000FEF738FE52F804EB7047DE1700080A2462
:1018400024494E5445525052455400BF42F804EDCD
:10185000FFF7FCFEFEF71AFFFEF7C2FD8E18000828
:10186000FEF7E4FDFEF799FD40000000FEF746FE9E
:10187000FFF7CCFF0D20636F6D70696C65206F6E94
:101880006C7900BFFEF798FD52F804EB7047FFF744
:1018900049FBFEF7A5FDA018000852F804EB7047BD
:1018A000FFF7A0BF3E180008815B00BF42F804EDBF
:1018B000FEF773FD4C180008FFF714F8FEF7ACFDB7
:1018C00052F804EB7047A8180008032E4F4B00BFD6
:1018D00042F804EDFEF761FD4C180008FFF702F82E
:1018E000FEF7A4FDFEF722FFFEF77AFDF8180008C8
:1018F000FFF750FC03206F6BFFF710FC52F804EB6E
:101900007047CA180008063F535441434B0000BFBC
:1019100042F804EDFFF71AF9FEF7E6FDFFF776FF50
:101920000A20756E646572666C6F770052F804EB7E
:10193000704706190008044556414C0042F804ED72
:10194000FFF7BAFDFEF7B6FDFEF780FDFEF748FD96
:1019500064190008FEF7C6FFFFF746F9FFF7D8FF46
:10196000FFF7EEBFFEF79EFDFFF7B2FF52F804EB64
:10197000704736190008065052455345540000BFC1
:1019800044F68061C2F2000185EA050570477619C8
:10199000000804515549540042F804ED44F68072A1
:1019A000C2F20002FFF782FFFFF7FCFEFFF7C6FF5F
:1019B000FEF722FDA8190008DFF8B80ADFF8B84AD8
:1019C0004460DFF8B84A4460DFF8AC4A8460DFF86E
:1019D000AC4A84607047DFF89C0AC46814F00104C4
:1019E000FBD17047DFF88C0A046944F0800404617D
:1019F0007047921900080C45524153455F534543C7
:101A0000544F520042F804EDFFF7E5FF046924F05B
:101A100078044FEAC50544EA050444F4803444F4EC
:101A2000007444F00204046151F8045B52F804EBC2
:101A30007047F61900080249210000BF42F804ED82
:101A4000FFF7C9FF046944F001040461FEF7E4FCF8
:101A5000FFF7C1FF046924F00104046152F804EBAC
:101A60007047361A0008075455524E4B455900BF6F
:101A700042F804EDFEF791FC00FF0000FEF78DFC3C
:101A8000C0000000FEF789FC40000000FFF7D0F81E
:101A9000FEF783FC00000000FEF77FFC000000085A
:101AA000FEF740FFFEF7C2FCFEF7D8FDFEF7E6FCAE
:101AB000FEF712FDFEF7BAFCFEF70EFDFFF7BEFFC4
:101AC000FEF700FDFEF7A8FDFEF7FCFCFEF7A4FD07
:101AD000FEF777FCB01A0008FEF7ECFD52F804EBB5
:101AE0007047661A0008012742F804EDFFF7E4FC8E
:101AF000FFF7ACFDFEF774FC021B000852F804EB84
:101B00007047FFF76FBEE61A000805414C4C4F5472
:101B100042F804EDFEF706FFFEF74CFE52F804EB28
:101B200070470A1B0008012C42F804EDFFF734F857
:101B3000FEF7C0FCFEF770FDFEF7F4FEFEF76CFC4E
:101B4000FEF76AFC52F804EB704700BF261B000842
:101B5000895B434F4D50494C455D00BF42F804ED51
:101B6000FFF7C2FFFFF7E0FF52F804EB7047501B8E
:101B7000000847434F4D50494C4500BF42F804ED23
:101B8000FEF76AFC25F00105FEF794FCFEF74EFC1B
:101B900000F0F7F9FEF740FD45F00105FEF76EFC99
:101BA00052F804EB7047721B0008874C49544552A9
:101BB000414C00BF42F804EDFFF7E0FF9A03000834
:101BC000FFF7B2FF52F804EB704742F804EDFEF75E
:101BD000E4FBFCFFFFFFFEF7A5FEFEF7EBFDFEF7C3
:101BE000DCFB22000000FFF755FCFEF707FEFEF7C6
:101BF000C5FCFEF779FFFEF795FEFEF70DFC52F8E7
:101C000004EB7047AA1B000883464F5242F804EDCC
:101C1000FFF7B4FF7C040008FEF7BEFF52F804EBA8
:101C20007047081C000885424547494E42F804EDBC
:101C3000FEF7B2FF52F804EB704700BF261C000805
:101C4000844E4558540000BF42F804EDFFF796FF5C
:101C5000C2030008FFF768FF52F804EB7047401C0E
:101C6000000885554E54494C42F804EDFFF786FFB5
:101C7000E0030008FFF758FF52F804EB7047621CBE
:101C8000000885414741494E42F804EDFFF776FFD1
:101C9000F8030008FFF748FF52F804EB7047821C76
:101CA00000088249460000BF42F804EDFFF766FFD6
:101CB000E0030008FEF770FFFEF76FFB0400000072
:101CC000FEF730FEFEF776FD52F804EB7047A21CDB
:101CD000000885414845414442F804EDFFF74EFFB6
:101CE000F8030008FEF758FFFEF757FB040000005A
:101CF000FEF718FEFEF75EFD52F804EB7047D21CAB
:101D00000008865245504541540000BF42F804ED9A
:101D1000FFF7BAFFFEF740FFFEF7D4FBFEF77CFBB0
:101D200052F804EB7047021D0008845448454E00E9
:101D300042F804EDFEF730FFFEF7C4FBFEF76CFB44
:101D400052F804EB70472A1D00088341465400BF37
:101D500042F804EDFEF7A6FBFFF7BEFFFFF766FFB4
:101D6000FEF7B0FB52F804EB70474A1D00088445AB
:101D70004C53450042F804EDFFF7AEFFFEF7A2FB1F
:101D8000FFF7D6FF52F804EB70476E1D0008855729
:101D900048494C4542F804EDFFF786FFFEF792FBF9
:101DA00052F804EB70478E1D00088641424F525492
:101DB000220000BF42F804EDFFF7E0FE0C18000817
:101DC000FFF703FF52F804EB7047AA1D00088224B6
:101DD000220000BF42F804EDFFF7D0FE74110008A6
:101DE000FFF7F3FE52F804EB7047CE1D0008822E79
:101DF000220000BF42F804EDFFF7C0FE9411000876
:101E0000FFF7E3FE52F804EB7047EE1D0008073FB2
:101E1000554E4951554500BF42F804EDFEF74AFBC7
:101E2000FFF714FCFEF7DCFA441E0008FFF7B2F9D6
:101E30000720726544656620FEF74EFBFEF7DEFC68
:101E4000FFF754F9FEF72EFB52F804EB704742F807
:101E500004EDFEF72FFBFEF7F9FAFEF7C1FA981E24
:101E60000008FFF7D9FFFEF771FDFEF7DFFAFFF775
:101E70005BFEFEF71FFBFEF769FDFEF7CDFAFEF7EE
:101E8000BDFCFEF77BFBFEF72FFEFEF74BFDFEF7DA
:101E9000C3FA52F804EB7047FFF76CF907206E6144
:101EA0006D653F20FFF79EBC0E1E000808242443EA
:101EB0004F4D50494C4500BF42F804EDFFF7C6FBBB
:101EC000FEF7E4FBFEF78CFAF81E0008FEF7AEFA08
:101ED000FEF763FA80000000FEF710FBFEF780FAC1
:101EE000EE1E0008FEF768FA52F804EB704700F0A7
:101EF00048F852F804EB7047FFF714F8FEF770FA51
:101F00000E1F0008FFF756FE52F804EB7047FFF76C
:101F100069BCAC1E0008054F5645525442F804ED0A
:101F2000FEF714FDFEF782FAFEF7F2FCFEF774FAF4
:101F300052F804EB7047161F0008C12F2F2000BF76
:101F400042F804EDFEF729FA52F804EB7047FFF768
:101F5000EBFDFFF7ABFCFFF7E1FF52F804EB704736
:101F60003A1F0008015D00BF42F804EDFEF715FAC4
:101F7000B81E0008FEF7B6FCFEF74EFA52F804EB66
:101F8000704742F804ED25F00105FEF705FEFEF767
:101F9000FDFAA5F1040540F2FF702C464FEA153515
:101FA00005EA00054FEAC43445EA040545F07845E2
:101FB00045F47045FFF7B8FD52F804EB7047641F15
:101FC0000008013A42F804EDFFF776FAFFF73FFF09
:101FD000FEF7E3F942F804EDFFF7A6FDFFF7C4FFB3
:101FE00052F804EB7047C21F000809494D4D4544A3
:101FF0004941544542F804EDFEF7CFF98000000056
:10200000FEF7A4FCFEF712FAFEF710FAFEF780FACC
:10201000FEF79CFCFEF70AFAFEF7FEF952F804EB15
:102020007047EA1F000808434F4E5354414E540076
:1020300042F804EDFFF740FAFFF709FFFFF76EFFE4
:10204000FEF7ABF942F804EDFFF76EFDFEF7A5F9D8
:1020500032080008FFF795FFFFF766FD52F804EB22
:10206000704726200008064352454154450000BFF2
:1020700042F804EDFFF720FAFFF7E9FEFFF74EFF05
:10208000FEF78BF942F804EDFFF74EFDFEF785F9F8
:1020900024080008FFF775FF52F804EB704766202C
:1020A0000008085641524941424C450042F804EDAF
:1020B000FFF7DEFFFEF771F900000000FFF734FDC7
:1020C00052F804EB704742F804EDFEF705FAFEF70C
:1020D00064F904000000FFF783F8FEF7DDFFFEF768
:1020E000CDF900F00CB8FEF7E5F9FEF7AFF9FEF711
:1020F00054F903000000FFF773F8FEF76DFAFEF7DE
:1021000060F9E620000852F804EB7047A2200008AE
:102110000444554D500000BF42F804EDFEF7B4FBF7
:10212000FEF784F9FEF7AAF9FEF79EFEFEF735F9F1
:1021300010000000FEF7A4FCFEF7A0F900F014B8B0
:10214000FEF7ECFFFEF729F910000000FEF7BCFADD
:10215000FFF7B9FFFEF7A4FAFEF7A2FAFEF79CFF1D
:10216000FEF79AFFFEF7C2FFFEF72BF940210008A9
:10217000FEF798F9FEF770F9FEF786FBFEF74CF9CB
:1021800052F804EB704710210008022E530000BFE4
:1021900042F804EDFEF780FFFEF7D8FCFEF76EF97B
:1021A00000F006B8FEF762F9FEF7E2FCFFF746F82A
:1021B000FEF707F9A4210008FEF76EFF52F804EBC2
:1021C00070478A210008053E4E414D4542F804ED16
:1021D000FEF754F9FEF79CFBFEF728F9FEF76AF9C3
:1021E000FEF7FEF80C220008FEF764F9FFF772F91B
:1021F000FEF73CF9FEF796F9FEF7F2F80C2200081C
:10220000FEF712FAFEF712F9FFF7E8BFFEF724F91E
:10221000FEF748F952F804EB7047C6210008032E78
:10222000494400BF42F804EDFEF730FAFEF7D8F853
:102230004E220008FEF7E2FAFEF7AFF81F0000009A
:10224000FEF75CF9FEF752FF52F804EB7047FEF719
:10225000A1FF09207B6E6F4E616D657D52F804EB26
:1022600070471E2200080353454500BF42F804EDA5
:10227000FFF73AFCFEF752FFFEF78FF8140000005C
:10228000FEF7FCF8FEF7C8F9FEF714F900F010F8B5
:10229000FEF797F884220008FEF704F952F804EBE1
:1022A000704766220008094445434F4D50494C454C
:1022B00042F804EDFEF7FEF8FEF7B8F8FEF7FAF87C
:1022C000FEF76BF800F800F8FEF718F9FEF765F86E
:1022D00000F000F8FEF72AFAFEF782F8382300082B
:1022E00040F6FE702C464FEA45554FEA65254FEA09
:1022F000D43404EA000445EA040500BFFEF7ECF814
:10230000FEF73CF9FEF788F9FFF760FFFEF7BEF92C
:10231000FEF766F82A230008FEF7BEFEFFF782FFED
:10232000FEF7C0F852F804EB7047FEF77FF8FEF7AF
:1023300073FF52F804EB7047FEF76EFFFEF7B2F83A
:1023400052F804EB7047A622000805574F52445339
:1023500042F804EDFEF7E2FEFEF7DAFAFEF766F861
:10236000FEF794F9FEF73CF884230008FEF7A2F884
:10237000FEF792FEFFF756FFFEF756F9FEF756F806
:10238000FFF7EEBF52F804EB704742F804EDFEF79A
:1023900004F80001000052F804EB70474A230008DB
:1023A0000248490042F804EDFEF7B8FEFEF7F2FEDF
:1023B00017626C75652070696C6C2073746D3332B4
:1023C00065466F7274682076FEF75EFAFEF72EF8A7
:1023D000FEF74AFDFFF7D9FFFEF7BAFCFEF7DEFC79
:1023E000FEF7DCFCFDF7D9FF2E000000FEF7C0FC75
:1023F000FEF7E6FCFEF70EFDFEF778FEFEF744FA68
:10240000FEF70AF8FEF78AFE52F804EB7047A023A5
:10241000000804434F4C44004FF00003C2F2000395
:1024200003F59F4203F59D4185EA050500BF42F88B
:1024300004EDFDF7B2FF00000000FDF76FFFFDF7B0
:10244000ACFF74020008FDF7A8FF00000020FDF7B4
:10245000A4FF48000000FEF7EBFBFFF791FAFEF740
:1024600009FAFEF7C1FBFFF759FDFFF795BAFFFF29
:10247000FFFF00000020024023016745AB89EFCD3C
:040000050800017975
:00000001FF
